{"abi":[{"type":"function","name":"anchor","inputs":[{"name":"_receiptHash","type":"bytes32","internalType":"bytes32"},{"name":"_decision","type":"string","internalType":"string"},{"name":"_severity","type":"string","internalType":"string"},{"name":"_agentId","type":"string","internalType":"string"}],"outputs":[],"stateMutability":"nonpayable"},{"type":"function","name":"getReceipt","inputs":[{"name":"_receiptHash","type":"bytes32","internalType":"bytes32"}],"outputs":[{"name":"","type":"tuple","internalType":"struct PolicyReceiptAnchor.Receipt","components":[{"name":"receiptHash","type":"bytes32","internalType":"bytes32"},{"name":"decision","type":"string","internalType":"string"},{"name":"severity","type":"string","internalType":"string"},{"name":"agentId","type":"string","internalType":"string"},{"name":"timestamp","type":"uint256","internalType":"uint256"},{"name":"submitter","type":"address","internalType":"address"}]}],"stateMutability":"view"},{"type":"function","name":"receiptIndex","inputs":[{"name":"","type":"uint256","internalType":"uint256"}],"outputs":[{"name":"","type":"bytes32","internalType":"bytes32"}],"stateMutability":"view"},{"type":"function","name":"receipts","inputs":[{"name":"","type":"bytes32","internalType":"bytes32"}],"outputs":[{"name":"receiptHash","type":"bytes32","internalType":"bytes32"},{"name":"decision","type":"string","internalType":"string"},{"name":"severity","type":"string","internalType":"string"},{"name":"agentId","type":"string","internalType":"string"},{"name":"timestamp","type":"uint256","internalType":"uint256"},{"name":"submitter","type":"address","internalType":"address"}],"stateMutability":"view"},{"type":"function","name":"totalReceipts","inputs":[],"outputs":[{"name":"","type":"uint256","internalType":"uint256"}],"stateMutability":"view"},{"type":"event","name":"ReceiptAnchored","inputs":[{"name":"receiptHash","type":"bytes32","indexed":true,"internalType":"bytes32"},{"name":"decision","type":"string","indexed":false,"internalType":"string"},{"name":"severity","type":"string","indexed":false,"internalType":"string"},{"name":"agentId","type":"string","indexed":false,"internalType":"string"},{"name":"timestamp","type":"uint256","indexed":false,"internalType":"uint256"},{"name":"submitter","type":"address","indexed":false,"internalType":"address"}],"anonymous":false}],"bytecode":{"object":"0x608060405234801561000f575f80fd5b5061112b8061001d5f395ff3fe608060405234801561000f575f80fd5b5060043610610055575f3560e01c80630646233014610059578063a23a720f14610075578063a7dd932c14610093578063ef6cf04d146100c3578063fcecbb61146100f8575b5f80fd5b610073600480360381019061006e91906108ee565b610128565b005b61007d6103b0565b60405161008a91906109ca565b60405180910390f35b6100ad60048036038101906100a89190610a0d565b6103bc565b6040516100ba9190610a47565b60405180910390f35b6100dd60048036038101906100d89190610a60565b6103dc565b6040516100ef96959493929190610b54565b60405180910390f35b610112600480360381019061010d9190610a60565b6105c4565b60405161011f9190610cd1565b60405180910390f35b5f805f8981526020019081526020015f20600401541461017d576040517f08c379a000000000000000000000000000000000000000000000000000000000815260040161017490610d3b565b60405180910390fd5b5f6040518060c0016040528089815260200188888080601f0160208091040260200160405190810160405280939291908181526020018383808284375f81840152601f19601f82011690508083019250505050505050815260200186868080601f0160208091040260200160405190810160405280939291908181526020018383808284375f81840152601f19601f82011690508083019250505050505050815260200184848080601f0160208091040260200160405190810160405280939291908181526020018383808284375f81840152601f19601f8201169050808301925050505050505081526020014281526020013373ffffffffffffffffffffffffffffffffffffffff168152509050805f808a81526020019081526020015f205f820151815f015560208201518160010190816102ba9190610f80565b5060408201518160020190816102d09190610f80565b5060608201518160030190816102e69190610f80565b506080820151816004015560a0820151816005015f6101000a81548173ffffffffffffffffffffffffffffffffffffffff021916908373ffffffffffffffffffffffffffffffffffffffff160217905550905050600188908060018154018082558091505060019003905f5260205f20015f9091909190915055877f4f9731c9d7daffcbb43aa8b824e6fbf322b8b7362bd61bff5ab93e768134763e888888888888423360405161039e989796959493929190611089565b60405180910390a25050505050505050565b5f600180549050905090565b600181815481106103cb575f80fd5b905f5260205f20015f915090505481565b5f602052805f5260405f205f91509050805f01549080600101805461040090610db3565b80601f016020809104026020016040519081016040528092919081815260200182805461042c90610db3565b80156104775780601f1061044e57610100808354040283529160200191610477565b820191905f5260205f20905b81548152906001019060200180831161045a57829003601f168201915b50505050509080600201805461048c90610db3565b80601f01602080910402602001604051908101604052809291908181526020018280546104b890610db3565b80156105035780601f106104da57610100808354040283529160200191610503565b820191905f5260205f20905b8154815290600101906020018083116104e657829003601f168201915b50505050509080600301805461051890610db3565b80601f016020809104026020016040519081016040528092919081815260200182805461054490610db3565b801561058f5780601f106105665761010080835404028352916020019161058f565b820191905f5260205f20905b81548152906001019060200180831161057257829003601f168201915b505050505090806004015490806005015f9054906101000a900473ffffffffffffffffffffffffffffffffffffffff16905086565b6105cc610806565b5f808381526020019081526020015f206040518060c00160405290815f820154815260200160018201805461060090610db3565b80601f016020809104026020016040519081016040528092919081815260200182805461062c90610db3565b80156106775780601f1061064e57610100808354040283529160200191610677565b820191905f5260205f20905b81548152906001019060200180831161065a57829003601f168201915b5050505050815260200160028201805461069090610db3565b80601f01602080910402602001604051908101604052809291908181526020018280546106bc90610db3565b80156107075780601f106106de57610100808354040283529160200191610707565b820191905f5260205f20905b8154815290600101906020018083116106ea57829003601f168201915b5050505050815260200160038201805461072090610db3565b80601f016020809104026020016040519081016040528092919081815260200182805461074c90610db3565b80156107975780601f1061076e57610100808354040283529160200191610797565b820191905f5260205f20905b81548152906001019060200180831161077a57829003601f168201915b5050505050815260200160048201548152602001600582015f9054906101000a900473ffffffffffffffffffffffffffffffffffffffff1673ffffffffffffffffffffffffffffffffffffffff1673ffffffffffffffffffffffffffffffffffffffff16815250509050919050565b6040518060c001604052805f80191681526020016060815260200160608152602001606081526020015f81526020015f73ffffffffffffffffffffffffffffffffffffffff1681525090565b5f80fd5b5f80fd5b5f819050919050565b61086c8161085a565b8114610876575f80fd5b50565b5f8135905061088781610863565b92915050565b5f80fd5b5f80fd5b5f80fd5b5f8083601f8401126108ae576108ad61088d565b5b8235905067ffffffffffffffff8111156108cb576108ca610891565b5b6020830191508360018202830111156108e7576108e6610895565b5b9250929050565b5f805f805f805f6080888a03121561090957610908610852565b5b5f6109168a828b01610879565b975050602088013567ffffffffffffffff81111561093757610936610856565b5b6109438a828b01610899565b9650965050604088013567ffffffffffffffff81111561096657610965610856565b5b6109728a828b01610899565b9450945050606088013567ffffffffffffffff81111561099557610994610856565b5b6109a18a828b01610899565b925092505092959891949750929550565b5f819050919050565b6109c4816109b2565b82525050565b5f6020820190506109dd5f8301846109bb565b92915050565b6109ec816109b2565b81146109f6575f80fd5b50565b5f81359050610a07816109e3565b92915050565b5f60208284031215610a2257610a21610852565b5b5f610a2f848285016109f9565b91505092915050565b610a418161085a565b82525050565b5f602082019050610a5a5f830184610a38565b92915050565b5f60208284031215610a7557610a74610852565b5b5f610a8284828501610879565b91505092915050565b5f81519050919050565b5f82825260208201905092915050565b5f5b83811015610ac2578082015181840152602081019050610aa7565b5f8484015250505050565b5f601f19601f8301169050919050565b5f610ae782610a8b565b610af18185610a95565b9350610b01818560208601610aa5565b610b0a81610acd565b840191505092915050565b5f73ffffffffffffffffffffffffffffffffffffffff82169050919050565b5f610b3e82610b15565b9050919050565b610b4e81610b34565b82525050565b5f60c082019050610b675f830189610a38565b8181036020830152610b798188610add565b90508181036040830152610b8d8187610add565b90508181036060830152610ba18186610add565b9050610bb060808301856109bb565b610bbd60a0830184610b45565b979650505050505050565b610bd18161085a565b82525050565b5f82825260208201905092915050565b5f610bf182610a8b565b610bfb8185610bd7565b9350610c0b818560208601610aa5565b610c1481610acd565b840191505092915050565b610c28816109b2565b82525050565b610c3781610b34565b82525050565b5f60c083015f830151610c525f860182610bc8565b5060208301518482036020860152610c6a8282610be7565b91505060408301518482036040860152610c848282610be7565b91505060608301518482036060860152610c9e8282610be7565b9150506080830151610cb36080860182610c1f565b5060a0830151610cc660a0860182610c2e565b508091505092915050565b5f6020820190508181035f830152610ce98184610c3d565b905092915050565b7f5265636569707420616c726561647920616e63686f72656400000000000000005f82015250565b5f610d25601883610a95565b9150610d3082610cf1565b602082019050919050565b5f6020820190508181035f830152610d5281610d19565b9050919050565b7f4e487b71000000000000000000000000000000000000000000000000000000005f52604160045260245ffd5b7f4e487b71000000000000000000000000000000000000000000000000000000005f52602260045260245ffd5b5f6002820490506001821680610dca57607f821691505b602082108103610ddd57610ddc610d86565b5b50919050565b5f819050815f5260205f209050919050565b5f6020601f8301049050919050565b5f82821b905092915050565b5f60088302610e3f7fffffffffffffffffffffffffffffffffffffffffffffffffffffffffffffffff82610e04565b610e498683610e04565b95508019841693508086168417925050509392505050565b5f819050919050565b5f610e84610e7f610e7a846109b2565b610e61565b6109b2565b9050919050565b5f819050919050565b610e9d83610e6a565b610eb1610ea982610e8b565b848454610e10565b825550505050565b5f90565b610ec5610eb9565b610ed0818484610e94565b505050565b5b81811015610ef357610ee85f82610ebd565b600181019050610ed6565b5050565b601f821115610f3857610f0981610de3565b610f1284610df5565b81016020851015610f21578190505b610f35610f2d85610df5565b830182610ed5565b50505b505050565b5f82821c905092915050565b5f610f585f1984600802610f3d565b1980831691505092915050565b5f610f708383610f49565b9150826002028217905092915050565b610f8982610a8b565b67ffffffffffffffff811115610fa257610fa1610d59565b5b610fac8254610db3565b610fb7828285610ef7565b5f60209050601f831160018114610fe8575f8415610fd6578287015190505b610fe08582610f65565b865550611047565b601f198416610ff686610de3565b5f5b8281101561101d57848901518255600182019150602085019450602081019050610ff8565b8683101561103a5784890151611036601f891682610f49565b8355505b6001600288020188555050505b505050505050565b828183375f83830152505050565b5f6110688385610a95565b935061107583858461104f565b61107e83610acd565b840190509392505050565b5f60a0820190508181035f8301526110a2818a8c61105d565b905081810360208301526110b781888a61105d565b905081810360408301526110cc81868861105d565b90506110db60608301856109bb565b6110e86080830184610b45565b999850505050505050505056fea2646970667358221220e49fd78c74db3d6c31fd8f058fe195c1ff7dd7beffa77cd2c5bfe3f778cb789764736f6c63430008140033","linkReferences":{}},"methodIdentifiers":{"anchor(bytes32,string,string,string)":"06462330","getReceipt(bytes32)":"fcecbb61","receiptIndex(uint256)":"a7dd932c","receipts(bytes32)":"ef6cf04d","totalReceipts()":"a23a720f"},"id":0}